{
  "contractName": "Auction",
  "abi": [
    {
      "inputs": [],
      "stateMutability": "nonpayable",
      "type": "constructor"
    },
    {
      "anonymous": false,
      "inputs": [
        {
          "indexed": true,
          "internalType": "address",
          "name": "_highestBidder",
          "type": "address"
        },
        {
          "indexed": false,
          "internalType": "uint256",
          "name": "_highestBid",
          "type": "uint256"
        }
      ],
      "name": "LogBid",
      "type": "event"
    },
    {
      "anonymous": false,
      "inputs": [
        {
          "indexed": true,
          "internalType": "address",
          "name": "_withdrawer",
          "type": "address"
        },
        {
          "indexed": false,
          "internalType": "uint256",
          "name": "amount",
          "type": "uint256"
        }
      ],
      "name": "LogWithdrawal",
      "type": "event"
    },
    {
      "inputs": [
        {
          "internalType": "address",
          "name": "",
          "type": "address"
        }
      ],
      "name": "bids",
      "outputs": [
        {
          "internalType": "uint256",
          "name": "",
          "type": "uint256"
        }
      ],
      "stateMutability": "view",
      "type": "function",
      "constant": true
    },
    {
      "inputs": [],
      "name": "endTime",
      "outputs": [
        {
          "internalType": "uint256",
          "name": "",
          "type": "uint256"
        }
      ],
      "stateMutability": "view",
      "type": "function",
      "constant": true
    },
    {
      "inputs": [],
      "name": "highestBid",
      "outputs": [
        {
          "internalType": "uint256",
          "name": "bidAmount",
          "type": "uint256"
        },
        {
          "internalType": "address",
          "name": "bidder",
          "type": "address"
        }
      ],
      "stateMutability": "view",
      "type": "function",
      "constant": true
    },
    {
      "inputs": [],
      "name": "newHouse",
      "outputs": [
        {
          "internalType": "string",
          "name": "houseType",
          "type": "string"
        },
        {
          "internalType": "string",
          "name": "houseColor",
          "type": "string"
        },
        {
          "internalType": "string",
          "name": "houseLocation",
          "type": "string"
        }
      ],
      "stateMutability": "view",
      "type": "function",
      "constant": true
    },
    {
      "inputs": [],
      "name": "startTime",
      "outputs": [
        {
          "internalType": "uint256",
          "name": "",
          "type": "uint256"
        }
      ],
      "stateMutability": "view",
      "type": "function",
      "constant": true
    },
    {
      "inputs": [],
      "name": "makeBid",
      "outputs": [
        {
          "internalType": "bool",
          "name": "",
          "type": "bool"
        }
      ],
      "stateMutability": "payable",
      "type": "function",
      "payable": true
    },
    {
      "inputs": [],
      "name": "withdraw",
      "outputs": [
        {
          "internalType": "bool",
          "name": "",
          "type": "bool"
        }
      ],
      "stateMutability": "nonpayable",
      "type": "function"
    },
    {
      "inputs": [],
      "name": "fetchHighestBid",
      "outputs": [
        {
          "components": [
            {
              "internalType": "uint256",
              "name": "bidAmount",
              "type": "uint256"
            },
            {
              "internalType": "address",
              "name": "bidder",
              "type": "address"
            }
          ],
          "internalType": "struct Auction.HighestBid",
          "name": "",
          "type": "tuple"
        }
      ],
      "stateMutability": "view",
      "type": "function",
      "constant": true
    }
  ],
  "bytecode": "0x60806040523480156200001157600080fd5b50336000806101000a81548173ffffffffffffffffffffffffffffffffffffffff021916908373ffffffffffffffffffffffffffffffffffffffff16021790555042600181905550610e104262000069919062000251565b6002819055506040518060400160405280600781526020017f234646464646460000000000000000000000000000000000000000000000000081525060036001019080519060200190620000bf92919062000168565b506040518060400160405280600e81526020017f4c61676f732c204e696765726961000000000000000000000000000000000000815250600360020190805190602001906200011092919062000168565b506040518060400160405280600681526020017f4475706c65780000000000000000000000000000000000000000000000000000815250600360000190805190602001906200016192919062000168565b5062000317565b8280546200017690620002e1565b90600052602060002090601f0160209004810192826200019a5760008555620001e6565b82601f10620001b557805160ff1916838001178555620001e6565b82800160010185558215620001e6579182015b82811115620001e5578251825591602001919060010190620001c8565b5b509050620001f59190620001f9565b5090565b5b8082111562000214576000816000905550600101620001fa565b5090565b6000819050919050565b7f4e487b7100000000000000000000000000000000000000000000000000000000600052601160045260246000fd5b60006200025e8262000218565b91506200026b8362000218565b9250817fffffffffffffffffffffffffffffffffffffffffffffffffffffffffffffffff0483118215151615620002a757620002a662000222565b5b828202905092915050565b7f4e487b7100000000000000000000000000000000000000000000000000000000600052602260045260246000fd5b60006002820490506001821680620002fa57607f821691505b60208210811415620003115762000310620002b2565b5b50919050565b610fb380620003276000396000f3fe60806040526004361061007b5760003560e01c8063d57bde791161004e578063d57bde791461013e578063f30e36581461016a578063f373c46314610188578063fa481f86146101b35761007b565b80633197cbb6146100805780633ccfd60b146100ab57806362ea82db146100d657806378e9792514610113575b600080fd5b34801561008c57600080fd5b506100956101e0565b6040516100a29190610963565b60405180910390f35b3480156100b757600080fd5b506100c06101e6565b6040516100cd9190610999565b60405180910390f35b3480156100e257600080fd5b506100fd60048036038101906100f89190610a17565b610447565b60405161010a9190610963565b60405180910390f35b34801561011f57600080fd5b5061012861045f565b6040516101359190610963565b60405180910390f35b34801561014a57600080fd5b50610153610465565b604051610161929190610a53565b60405180910390f35b610172610497565b60405161017f9190610999565b60405180910390f35b34801561019457600080fd5b5061019d6106ea565b6040516101aa9190610ac9565b60405180910390f35b3480156101bf57600080fd5b506101c861076a565b6040516101d793929190610b7d565b60405180910390f35b60025481565b600060025442101561022d576040517f08c379a000000000000000000000000000000000000000000000000000000000815260040161022490610c15565b60405180910390fd5b60008054906101000a900473ffffffffffffffffffffffffffffffffffffffff1673ffffffffffffffffffffffffffffffffffffffff163373ffffffffffffffffffffffffffffffffffffffff16146102bb576040517f08c379a00000000000000000000000000000000000000000000000000000000081526004016102b290610c81565b60405180910390fd5b6000600860003373ffffffffffffffffffffffffffffffffffffffff1673ffffffffffffffffffffffffffffffffffffffff1681526020019081526020016000205490506000600860003373ffffffffffffffffffffffffffffffffffffffff1673ffffffffffffffffffffffffffffffffffffffff1681526020019081526020016000208190555060003373ffffffffffffffffffffffffffffffffffffffff168260405161036a90610cd2565b60006040518083038185875af1925050503d80600081146103a7576040519150601f19603f3d011682016040523d82523d6000602084013e6103ac565b606091505b50509050806103f0576040517f08c379a00000000000000000000000000000000000000000000000000000000081526004016103e790610d33565b60405180910390fd5b3373ffffffffffffffffffffffffffffffffffffffff167fb4214c8c54fc7442f36d3682f59aebaf09358a4431835b30efb29d52cf9e1e91836040516104369190610963565b60405180910390a260019250505090565b60086020528060005260406000206000915090505481565b60015481565b60068060000154908060010160009054906101000a900473ffffffffffffffffffffffffffffffffffffffff16905082565b600060025442106104dd576040517f08c379a00000000000000000000000000000000000000000000000000000000081526004016104d490610d9f565b60405180910390fd5b60008054906101000a900473ffffffffffffffffffffffffffffffffffffffff1673ffffffffffffffffffffffffffffffffffffffff163373ffffffffffffffffffffffffffffffffffffffff16141561056c576040517f08c379a000000000000000000000000000000000000000000000000000000000815260040161056390610e0b565b60405180910390fd5b600034600860003373ffffffffffffffffffffffffffffffffffffffff1673ffffffffffffffffffffffffffffffffffffffff168152602001908152602001600020546105b99190610e5a565b90506006600001548111610602576040517f08c379a00000000000000000000000000000000000000000000000000000000081526004016105f990610efc565b60405180910390fd5b33600660010160006101000a81548173ffffffffffffffffffffffffffffffffffffffff021916908373ffffffffffffffffffffffffffffffffffffffff1602179055508060066000018190555080600860003373ffffffffffffffffffffffffffffffffffffffff1673ffffffffffffffffffffffffffffffffffffffff168152602001908152602001600020819055503373ffffffffffffffffffffffffffffffffffffffff167f5331b3a4532c2507900f549683f076c051f92222c177b52f82f140d8667d3ebf826040516106da9190610963565b60405180910390a2600191505090565b6106f261091a565b60006006604051806040016040529081600082015481526020016001820160009054906101000a900473ffffffffffffffffffffffffffffffffffffffff1673ffffffffffffffffffffffffffffffffffffffff1673ffffffffffffffffffffffffffffffffffffffff168152505090508091505090565b600380600001805461077b90610f4b565b80601f01602080910402602001604051908101604052809291908181526020018280546107a790610f4b565b80156107f45780601f106107c9576101008083540402835291602001916107f4565b820191906000526020600020905b8154815290600101906020018083116107d757829003601f168201915b50505050509080600101805461080990610f4b565b80601f016020809104026020016040519081016040528092919081815260200182805461083590610f4b565b80156108825780601f1061085757610100808354040283529160200191610882565b820191906000526020600020905b81548152906001019060200180831161086557829003601f168201915b50505050509080600201805461089790610f4b565b80601f01602080910402602001604051908101604052809291908181526020018280546108c390610f4b565b80156109105780601f106108e557610100808354040283529160200191610910565b820191906000526020600020905b8154815290600101906020018083116108f357829003601f168201915b5050505050905083565b604051806040016040528060008152602001600073ffffffffffffffffffffffffffffffffffffffff1681525090565b6000819050919050565b61095d8161094a565b82525050565b60006020820190506109786000830184610954565b92915050565b60008115159050919050565b6109938161097e565b82525050565b60006020820190506109ae600083018461098a565b92915050565b600080fd5b600073ffffffffffffffffffffffffffffffffffffffff82169050919050565b60006109e4826109b9565b9050919050565b6109f4816109d9565b81146109ff57600080fd5b50565b600081359050610a11816109eb565b92915050565b600060208284031215610a2d57610a2c6109b4565b5b6000610a3b84828501610a02565b91505092915050565b610a4d816109d9565b82525050565b6000604082019050610a686000830185610954565b610a756020830184610a44565b9392505050565b610a858161094a565b82525050565b610a94816109d9565b82525050565b604082016000820151610ab06000850182610a7c565b506020820151610ac36020850182610a8b565b50505050565b6000604082019050610ade6000830184610a9a565b92915050565b600081519050919050565b600082825260208201905092915050565b60005b83811015610b1e578082015181840152602081019050610b03565b83811115610b2d576000848401525b50505050565b6000601f19601f8301169050919050565b6000610b4f82610ae4565b610b598185610aef565b9350610b69818560208601610b00565b610b7281610b33565b840191505092915050565b60006060820190508181036000830152610b978186610b44565b90508181036020830152610bab8185610b44565b90508181036040830152610bbf8184610b44565b9050949350505050565b7f546869732061756374696f6e206973207374696c6c206f70656e2e0000000000600082015250565b6000610bff601b83610aef565b9150610c0a82610bc9565b602082019050919050565b60006020820190508181036000830152610c2e81610bf2565b9050919050565b7f4f6e6c79206f776e65722063616e20706572666f726d207461736b2e00000000600082015250565b6000610c6b601c83610aef565b9150610c7682610c35565b602082019050919050565b60006020820190508181036000830152610c9a81610c5e565b9050919050565b600081905092915050565b50565b6000610cbc600083610ca1565b9150610cc782610cac565b600082019050919050565b6000610cdd82610caf565b9150819050919050565b7f5769746864726177616c206661696c65642e0000000000000000000000000000600082015250565b6000610d1d601283610aef565b9150610d2882610ce7565b602082019050919050565b60006020820190508181036000830152610d4c81610d10565b9050919050565b7f546869732061756374696f6e20697320636c6f7365642e000000000000000000600082015250565b6000610d89601783610aef565b9150610d9482610d53565b602082019050919050565b60006020820190508181036000830152610db881610d7c565b9050919050565b7f4f776e6572206973206e6f7420616c6c6f77656420746f206269642e00000000600082015250565b6000610df5601c83610aef565b9150610e0082610dbf565b602082019050919050565b60006020820190508181036000830152610e2481610de8565b9050919050565b7f4e487b7100000000000000000000000000000000000000000000000000000000600052601160045260246000fd5b6000610e658261094a565b9150610e708361094a565b9250827fffffffffffffffffffffffffffffffffffffffffffffffffffffffffffffffff03821115610ea557610ea4610e2b565b5b828201905092915050565b7f426964206572726f723a204d616b65206120686967686572204269642e000000600082015250565b6000610ee6601d83610aef565b9150610ef182610eb0565b602082019050919050565b60006020820190508181036000830152610f1581610ed9565b9050919050565b7f4e487b7100000000000000000000000000000000000000000000000000000000600052602260045260246000fd5b60006002820490506001821680610f6357607f821691505b60208210811415610f7757610f76610f1c565b5b5091905056fea2646970667358221220906ee7378d1e89ab554b1445b00097333306868e16dd8d03711308c34abae05d64736f6c63430008090033",
  "immutableReferences": {},
  "source": "// SPDX-License-Identifier: MIT\npragma solidity 0.8.9;\n\ncontract Auction {\n  address private owner;\n  uint256 public startTime;\n  uint256 public endTime;\n\n  // Properties\n  struct House {\n    string houseType;\n    string houseColor;\n    string houseLocation;\n  }\n\n  struct HighestBid {\n    uint256 bidAmount;\n    address bidder;\n  }\n\n  House public newHouse;\n  HighestBid public highestBid;\n  mapping(address => uint256) public bids;\n\n  // Modifiers\n  modifier isOngoing() {\n    require(block.timestamp < endTime, 'This auction is closed.');\n    _;\n  }\n  modifier notOngoing() {\n    require(block.timestamp >= endTime, 'This auction is still open.');\n    _;\n  }\n  modifier isOwner() {\n    require(msg.sender == owner, 'Only owner can perform task.');\n    _;\n  }\n  modifier notOwner() {\n    require(msg.sender != owner, 'Owner is not allowed to bid.');\n    _;\n  }\n\n  // Events\n  event LogBid(address indexed _highestBidder, uint256 _highestBid);\n  event LogWithdrawal(address indexed _withdrawer, uint256 amount);\n\n  constructor () {\n    owner = msg.sender;\n    startTime = block.timestamp;\n    endTime = block.timestamp * 1 hours;\n    newHouse.houseColor = '#FFFFFF';\n    newHouse.houseLocation = 'Lagos, Nigeria';\n    newHouse.houseType = 'Duplex';\n  }\n\n  function makeBid() public payable isOngoing() notOwner() returns (bool) {\n    uint256 bidAmount = bids[msg.sender] + msg.value;\n    require(bidAmount > highestBid.bidAmount, 'Bid error: Make a higher Bid.');\n\n    highestBid.bidder = msg.sender;\n    highestBid.bidAmount = bidAmount;\n    bids[msg.sender] = bidAmount;\n\n    emit LogBid(msg.sender, bidAmount);\n    return true;\n  }\n\n  function withdraw() public notOngoing() isOwner() returns (bool) {\n    uint256 amount = bids[msg.sender];\n    \n    bids[msg.sender] = 0;\n    (bool success, ) = msg.sender.call{ value: amount }(\"\");\n    require(success, 'Withdrawal failed.');\n\n    emit LogWithdrawal(msg.sender, amount);\n    return true;\n  }\n\n  function fetchHighestBid() public view returns (HighestBid memory) {\n    HighestBid memory _highestBid = highestBid; \n    return _highestBid;\n  }\n}\n",
  "sourcePath": "/Users/mac/Desktop/truffle-react-demo/contracts/Auction.sol",
  "compiler": {
    "name": "solc",
    "version": "0.8.9+commit.e5eed63a.Emscripten.clang"
  },
  "schemaVersion": "3.4.3",
  "updatedAt": "2021-10-27T18:55:39.082Z",
  "networkType": "ethereum",
  "devdoc": {
    "kind": "dev",
    "methods": {},
    "version": 1
  },
  "userdoc": {
    "kind": "user",
    "methods": {},
    "version": 1
  }
}